:100000000C9474000C949C000C949C000C949C0028
:100010000C949C000C949C000C949C000C949C00F0
:100020000C949C000C949C000C949C000C949C00E0
:100030000C949C000C949C000C949C000C949C00D0
:100040000C9493030C949C000C945E090C94380956
:100050000C949C000C949C000C949C000C949C00B0
:100060000C949C000C949C000000000023002600CF
:10007000290000000008000201000003040700003E
:10008000000000000000646573657269616C697A44
:10009000654A736F6E2829206661696C65642077F4
:1000A00069746820636F646520000000000025000B
:1000B00028002B0000000000240027002A00040470
:1000C0000404040404040202020202020303030300
:1000D00003030102040810204080010204081020DC
:1000E0000102040810206A0B11241FBECFEFD8E0D4
:1000F000DEBFCDBF11E0A0E0B1E0EAEEFCE102C05E
:1001000005900D92A83DB107D9F722E0A8EDB1E026
:1001100001C01D92A238B207E1F710E0C4E7D0E0B9
:1001200004C02197FE010E94230DC337D107C9F7F0
:100130000E9490090C94730E0C9400003FB7F89441
:100140008091DD019091DE01A091DF01B091E0018D
:1001500026B5A89B05C02F3F19F00196A11DB11D22
:100160003FBFBA2FA92F982F8827820F911DA11D5D
:10017000B11DBC01CD0142E0660F771F881F991F9A
:100180004A95D1F708954F925F926F927F928F9226
:100190009F92AF92BF92DF92EF92FF920F931F93C5
:1001A000CF93DF938C01FB0180818B3239F08D324C
:1001B00039F46F5F7F4FFF24F39403C06F5F7F4F6D
:1001C000F12CFB018081982F9F7D9E3429F480E0E3
:1001D00090E0A0ECBFE730C1993409F4C6C090EDBF
:1001E000980F9A3028F4FB0160E070E0CB0124C046
:1001F0008E3209F0DCC0F7CF6A3929E9720782072D
:1002000029E1920710F5AAE0B0E09B01AC010E9441
:10021000180D8C2E912CA12CB12C24013501409469
:10022000509460947094461657066806790668F0F4
:10023000680D791D8A1D9B1DDE2FEF2E2191C0EDCB
:10024000C20FCA30C8F2222339F0C0E0BAE08B2EC8
:10025000912CA12CB12C13C0F8016083718382838F
:1002600093830E94D20BF8016483758386839783FE
:10027000F11002C086E001C087E0F801E3C061151B
:100280007105F0E88F07910540F0A50194010E94E7
:10029000F60CCA01B901CF5FF2CFED2FFE2D2C2F46
:1002A0002D1BE22EEE0EEF01319140ED430F4A304F
:1002B000C0F3FE013E32F1F42196FE012196208129
:1002C00050EDB52EB20EA9E0DA2EDB1498F06C3C9E
:1002D0002CEC72072CE08207910578F7AAE0B0E0D9
:1002E0009B01AC010E94180D6B0D711D811D911DAC
:1002F000EA94E3CF20812F7D253409F053C021817A
:100300002D3219F43296B1E006C02B3211F031963D
:1003100001C03296B0E09F01C0E0D0E04AE0A42ED8
:100320004E2D0E2C000C550BF901A0812F5F3F4F75
:100330000F2EF0EDBF2EF02DBA0E0F2EF9E0DF2EAE
:10034000F02DDB1448F1AC9EF001AD9EF00D1124B0
:10035000CA2FAA0FDD0BE097CE0FDF1FFE01E40FBF
:10036000F51FB7970CF3B1110CC0F11005C080E078
:1003700090E0A0E8BFE760C080E090E0A0E8BFEFB9
:100380005BC0F11004C080E090E0DC0155C080E06B
:1003900090E0A0E0B0E850C0BB2331F0D195C1950A
:1003A000D10902C0C0E0D0E02081222359F0F80139
:1003B0001082118212821382148215821682178291
:1003C000108641C0CE0DD11DE7FCDA950E94D20BFC
:1003D0001C161D06ACF4E12CC0FF0CC024E0E29E0C
:1003E000F0011124E25EFE4F208131814281538170
:1003F0000E94610CD595C795E394209769F718C0C2
:10040000D195C195D109E12C209791F0C0FF0CC086
:1004100024E0E29EF0011124EA5FFE4F2081318149
:10042000428153810E94610CD595C795E394ECCF2E
:10043000DC01CB01F110B058F80184839583A683C9
:10044000B78388E08087C801DF91CF911F910F911A
:10045000FF90EF90DF90BF90AF909F908F907F9034
:100460006F905F904F900895982F80ED890F8A309C
:1004700020F081EA890F8C3110F481E008958FEB30
:10048000890F8A31D0F39B32C1F381E09D3221F094
:100490009E3219F080E0089508950895FC0180854A
:1004A00081110AC0A281B381CD0101969383828319
:1004B0008C91878381E0808787810895DF92EF9216
:1004C000FF920F931F93CF93DF93EC017B010C817D
:1004D0001D810E944E02D82E1886CE010E944E0227
:1004E00018868D1551F1811103C081E090E036C06E
:1004F0008C35D1F4CE010E944E028823B1F38537AA
:1005000019F484E090E02AC0E8E5F1E090819923B5
:1005100051F0981306C08181811105C082E090E0FE
:100520001DC03296F3CF1886EC81FD819F012F5FAD
:100530003F4F3D832C838083D0CFEC81FD81CF0161
:1005400001969D838C831082F70111830083012B18
:1005500019F483E090E002C080E090E0DF91CF9159
:100560001F910F91FF90EF90DF9008951F93CF930D
:10057000DF93EC01CE010E944E028B302CF48930C7
:100580000CF58823C1F032C08032E1F08F3219F0CF
:100590008D3061F517C01886CE010E944E028A3256
:1005A00019F08F32C9F01FC0188610E0CE010E94EA
:1005B0004E02811103C081E090E01AC08F3221F415
:1005C000112311F01886D6CF11E08A3209F010E01D
:1005D0001886ECCF8A3071F21886CE010E944E0246
:1005E0008111F8CFE8CF82E090E002C080E090E097
:1005F000DF91CF911F9108950895CF93DF93DC0190
:10060000EB01EC81FD818A819B810896E817F9074F
:1006100018F480E090E021C03897FD83EC83309798
:10062000C1F31296CD91DC911397209751F0CF0131
:100630008C1B9D0B23E0959587952A95E1F78D837B
:1006400003C01196FC93EE931396FC93EE931297CE
:100650001582148217821682CF01DF91CF910895FF
:10066000833081F028F4813099F08230A1F0089530
:100670008730A9F08830B9F08430D1F480918000BF
:100680008F7D03C0809180008F77809380000895D4
:1006900084B58F7702C084B58F7D84BD0895809125
:1006A000B0008F7703C08091B0008F7D8093B00041
:1006B00008958F929F92AF92BF92CF92DF92EF9266
:1006C000FF926B017C010E949E004B015C01C114F2
:1006D000D104E104F104F1F00E949E00DC01CB01A1
:1006E00088199909AA09BB09883E9340A105B1055B
:1006F00070F321E0C21AD108E108F10888EE880EF3
:1007000083E0981EA11CB11CC114D104E104F104C2
:1007100019F7DDCFFF90EF90DF90CF90BF90AF90B3
:100720009F908F9008951F920F920FB60F921124F1
:100730002F933F938F939F93AF93BF938091D90152
:100740009091DA01A091DB01B091DC013091D801E8
:1007500023E0230F2D3720F40196A11DB11D05C004
:1007600026E8230F0296A11DB11D2093D801809386
:10077000D9019093DA01A093DB01B093DC01809161
:10078000DD019091DE01A091DF01B091E0010196C1
:10079000A11DB11D8093DD019093DE01A093DF01C7
:1007A000B093E001BF91AF919F918F913F912F91B5
:1007B0000F900FBE0F901F9018950F931F93CF931C
:1007C000DF93EC018B012097E1F06E817F810115B1
:1007D000110519F06115710521F40617170731F499
:1007E00010C0C8010E946A0E892B59F08D818823A0
:1007F00031F098E08902C00DD11D1124E4CFC0E092
:10080000D0E0CE01DF91CF911F910F910895FC01AF
:1008100090819078692B60830895009731F0FC01F6
:10082000808191810E94DD03089580E090E0089529
:10083000CF92DF92EF92FF92CF93DF93CDB7DEB7E7
:1008400029970FB6F894DEBF0FBECDBF009709F40D
:100850005FC0FC0184818F77873028F4853068F48D
:100860008330A8F455C0873069F0883009F050C053
:10087000C080D180E280F38031C080819181A281EB
:10088000B38121C080819181A281B38112C0608136
:100890007181CE0101960E94C30089819A81AB814A
:1008A000BC812985273029F02830A1F0263081F538
:1008B0000AC0813020E89207A105B10548F591955D
:1008C0008195910927C0811520E89207A105B105FE
:1008D00008F11EC0CD80DE80EF80F88420E030E09B
:1008E00040E057ECC701B6010E945C0C87FD10C0C8
:1008F00020E03EEF4FEF56E4C701B6010E94970B90
:10090000181634F0C701B6010E949C0BCB0102C03F
:1009100080E090E029960FB6F894DEBF0FBECDBF01
:10092000DF91CF91FF90EF90DF90CF900895FC0181
:1009300080819181892B29F06CEF72E080E090E05A
:10094000089560E070E0CB0108958F929F92AF927E
:10095000BF92CF92DF92EF92FF920F931F93CF93AC
:10096000DF93CDB7DEB7CB54D1090FB6F894DEBF15
:100970000FBECDBF8C017B010E94B6022C969FAFAB
:100980008EAF2C97CE01865B9F4F0E949704672BFA
:1009900009F06AC080FD68C0C8010E944E028B3514
:1009A00049F560E4C70104960E940704D701119637
:1009B0001C921E9213961C921E921297F801868129
:1009C000882359F1C8010E944E028B3509F07DC180
:1009D000D80118961C92C8010E94B6029A83898396
:1009E000CE0101960E949704672B09F099C180FD02
:1009F00097C141C08B3771F560E2C70104960E9430
:100A00000704D70111961C921E9213961C921E92F7
:100A10001297F8018681811102C085E091C1C80159
:100A20000E944E028B3709F050C1D80118961C92D3
:100A3000C8010E94B60223969FAF8EAF2397CE01C6
:100A40008F5B9F4F0E949704672B09F040C180FD88
:100A50003EC125C1C8010E944E02873209F43EC141
:100A6000823209F04CC13AC12B968FAD2B972C9650
:100A70009FAD2C97ECC1C8010E944E028D35B9F193
:100A8000D8016D917C91C7010E94FD02BC01892BA8
:100A900009F4FBC0F801968191509683C8010E9429
:100AA000A5049A838983D80116968C9116978F5F37
:100AB00016968C93CE0101960E949704672B09F03D
:100AC0002FC180FD2DC1C8010E94B6029A8389837F
:100AD000CE0101960E949704672B09F021C180FD89
:100AE0001FC1C8010E944E028D3509F0D0C0F80127
:100AF000108625C1C8010E944E02873209F4D5C074
:100B0000823209F4D2C0F80184809580C8010E9425
:100B10004E02B82E882309F4D5C08B2D0E943402D2
:100B2000882309F4C9C0F80110860480F581E02DFE
:100B3000CF010196D80115969C938E931497B0829D
:100B4000C8010E944E02B82E0E9434028111EBCFE0
:100B5000D8011496ED91FC911597CF010196159649
:100B60009C938E93149710829A828982892809F423
:100B7000A6C080E090E023969FAF8EAF2397CE0172
:100B80008F5B9F4F0E949704672B09F0A0C080FDE8
:100B90009EC029813A81D60114968C911497806861
:100BA00014968C93149717963C932E931697C8011E
:100BB0000E94B60223969FAF8EAF2397CE018F5B24
:100BC0009F4F0E949704672B09F081C080FD7FC072
:100BD000C8010E944E028A3309F077C0F8011086DE
:100BE000868181508683B601C8010E94A5042396A0
:100BF0009FAF8EAF2397D80116968C9116978F5F73
:100C000016968C93CE018F5B9F4F0E949704672BA3
:100C100009F05DC080FD5BC0C8010E94B60223964A
:100C20009FAF8EAF2397CE018F5B9F4F0E9497049B
:100C3000672B09F04CC080FD4AC0C8010E944E02DB
:100C40008D3709F454CFC8010E944E028C32E9F569
:100C5000D80118961C92C8010E94B60223969FAF35
:100C60008EAF2397CE018F5B9F4F0E949704672B17
:100C700071F580FD2CC0D8016D917C91C7010E9457
:100C8000FD026C01892B09F035CF83E059C0C80102
:100C90000E944E028C32C9F4F8011086F1CEC801D0
:100CA0000E944E028D3739F722CFBE016F5F7F4F12
:100CB000C8010E945E025FCF82E090E05CCF83E0DB
:100CC00090E059CF81E090E056CF82E039C0229683
:100CD0008FAD229723969FAD2397B9C0BE016F5B5E
:100CE0007F4FC8010E945E029A838983CE010196DC
:100CF0000E949704672BA1F480FD12C014C0C801A4
:100D00000E944E02C82EFE0131965F01D12C8C2D1F
:100D10000E9434028823B1F0BFE3DB128DC012C001
:100D200089819A8194C023960EAD1FAD239764E00C
:100D3000C70104960E940704D7010D931C9380E01D
:100D400090E085C0E1E0F0E0EC0FFD1FED0DF11D3E
:100D500010828981843799F465E0C70104960E9466
:100D6000070481E090E0A0E0B0E0F7018083918388
:100D7000A283B38390E0F4E0DF1269C01AC0863624
:100D800089F465E0C70104960E940704D7011D920B
:100D90001D921D921C92139781E090E0B5E0DB124A
:100DA00056C007C08E3639F481E090E0E4E0DE12F0
:100DB0004EC080E04CC0BE016F5F7F4FCE018F5BA5
:100DC0009F4F0E94C30025968CAC9DACAEACBFACCF
:100DD00025972A968FAD2A97873081F08830D1F0F9
:100DE000863009F072CF66E0C70104960E940704BE
:100DF000F70180829182A282B382A1CF67E0C7010E
:100E000004960E940704D7018D929D92AD92BC92E8
:100E1000139795CF29968CAC9DACAEACBFAC2997FF
:100E200068E0C70104960E940704D7018D929D9245
:100E3000AD92BC92139783CFF8011086D394D5015D
:100E4000CD925D01C8010E944E02C82E60CFC55BE5
:100E5000DF4F0FB6F894DEBF0FBECDBFDF91CF914D
:100E60001F910F91FF90EF90DF90CF90BF90AF90C8
:100E70009F908F90089590E0FC01EE52FF4F2491D7
:100E8000FC01E254FF4F8491882399F090E0880F91
:100E9000991FFC01EC54FF4FA591B491FC01E6555C
:100EA000FF4F859194918FB7F894EC91E22BEC93DE
:100EB0008FBF0895CF92DF92EF92FF920F931F930F
:100EC000CF93DF936C017A018B01C0E0D0E0CE15A7
:100ED000DF0589F0D8016D918D01D601ED91FC916E
:100EE0000190F081E02DC6010995892B11F47E0156
:100EF00002C02196ECCFC701DF91CF911F910F91D6
:100F0000FF90EF90DF90CF900895089580E090E0FB
:100F10000895FC01538D448D252F30E0842F90E0FF
:100F2000821B930B541710F0CF96089501970895E4
:100F3000FC01918D828D981761F0828DDF01A80FE1
:100F4000B11D5D968C91928D9F5F9F73928F90E003
:100F500008958FEF9FEF0895FC01918D828D981772
:100F600031F0828DE80FF11D858D90E008958FEFAF
:100F70009FEF0895FC01918D228D892F90E0805C78
:100F80009F4F821B91098F739927089581EE91E0FD
:100F90000E94BA0721E0892B09F420E0822F0895EE
:100FA000FC01848DDF01A80FB11DA35ABF4F2C9106
:100FB000848D90E001968F739927848FA689B789D5
:100FC0002C93A089B1898C9180648C93938D848DAE
:100FD000981306C00288F389E02D80818F7D80837D
:100FE0000895EF92FF920F931F93CF93DF93EC013D
:100FF00081E0888F9B8D8C8D981305C0E889F989D5
:10100000808185FD24C0F62E0B8D10E00F5F1F4FF1
:101010000F731127E02E8C8DE8120CC00FB607FC61
:10102000FACFE889F989808185FFF5CFCE010E944A
:10103000D007F1CF8B8DFE01E80FF11DE35AFF4F72
:10104000F0820B8FEA89FB898081806207C0EE897C
:10105000FF896083E889F98980818064808381E0E9
:1010600090E0DF91CF911F910F91FF90EF90089545
:10107000CF93DF93EC01888D8823C9F0EA89FB893F
:10108000808185FD05C0A889B9898C9186FD0FC036
:101090000FB607FCF5CF808185FFF2CFA889B9890B
:1010A0008C9185FFEDCFCE010E94D007E7CFDF9175
:1010B000CF91089580E090E0892B29F00E94C60727
:1010C00081110C9400000895009769F0FC010190D3
:1010D0000020E9F73197AF01481B590BBC0181EEA5
:1010E00091E00C945A0780E090E00895CF93DF934D
:1010F0000E946408EC0183E691E00E9464088C0F72
:101100009D1FDF91CF9108958F929F92AF92BF92D2
:10111000CF92DF92EF92FF920F931F93CF93DF93C3
:10112000CDB7DEB7A1970FB6F894DEBF0FBECDBF27
:101130006C01990FEE08FF08F7FE31C0E091E10164
:10114000F091E2010190F081E02D6DE281EE91E0FD
:1011500009958C0122273327A9012C193D094E0935
:101160005F0919A2CE0181967C019AE0892E912C0B
:10117000A12CB12CCA01B901A50194010E94F60C61
:10118000605DF70162937F0121153105410551052D
:1011900089F7CF010E946408080F191F1EC0A7011C
:1011A000960119A28E010F5D1F4F8AE0C82ED12C27
:1011B000E12CF12CCA01B901A70196010E94F60C9D
:1011C000605DF80162938F012115310541055105DC
:1011D00089F7CF010E9464088C0183E691E00E94A8
:1011E0006408800F911FA1960FB6F894DEBF0FBE62
:1011F000CDBFDF91CF911F910F91FF90EF90DF90C6
:10120000CF90BF90AF909F908F9008951F93CF93F2
:10121000DF93282F30E0F901EE58FF4F8491F90158
:10122000EE52FF4FD491F901E254FF4FC491CC2309
:10123000C9F0162F81110E943003EC2FF0E0EE0F61
:10124000FF1FE655FF4FA591B4918FB7F894111188
:1012500005C09C91ED2FE095E92302C0EC91ED2BA8
:10126000EC938FBFDF91CF911F9108950E94650E7F
:101270001F920F920FB60F9211242F933F934F930B
:101280005F936F937F938F939F93AF93BF93EF93EE
:10129000FF9381EE91E00E94D007FF91EF91BF9103
:1012A000AF919F918F917F916F915F914F913F91FE
:1012B0002F910F900FBE0F901F9018951F920F92B5
:1012C0000FB60F9211242F938F939F93EF93FF9359
:1012D000E091F101F091F2018081E091F701F0914C
:1012E000F80182FD12C090818091FA018F5F8F73A7
:1012F0002091FB01821751F0E091FA01F0E0EF51EB
:10130000FE4F958F8093FA0101C08081FF91EF918C
:101310009F918F912F910F900FBE0F901F90189556
:10132000CF93DF93CDB7DEB767970FB6F894DEBFE4
:101330000FBECDBF789484B5826084BD84B58160D2
:1013400084BD85B5826085BD85B5816085BD809190
:101350006E00816080936E00109281008091810008
:101360008260809381008091810081608093810000
:10137000809180008160809380008091B1008460C2
:101380008093B1008091B00081608093B000809123
:101390007A00846080937A0080917A0082608093E2
:1013A0007A0080917A00816080937A0080917A003F
:1013B000806880937A001092C100E091F101F09171
:1013C000F20182E08083E091ED01F091EE01108264
:1013D000E091EF01F091F0018FEC80831092F90120
:1013E000E091F501F091F60186E08083E091F30150
:1013F000F091F401808180618083E091F301F091AC
:10140000F401808188608083E091F301F091F40120
:10141000808180688083E091F301F091F401808104
:101420008F7D80838AE691E00E94760860E08DE0FF
:101430000E94060988E00E943B0789E00E943B0762
:101440008DE00E943B075E0122E0A20EB11C3FED41
:10145000432E30E0532E4BEC642E40E0742E81EE90
:1014600091E00E94BA07181619060CF006C18DB655
:101470009EB6EDB7FEB7E81BF90B0FB6F894FEBFAA
:101480000FBEEDBF0DB71EB70F5F1F4F680178018C
:10149000E80EF91E81EE91E00E949807F601819313
:1014A0006F01EE15FF05B1F7C8010E94760888E5C7
:1014B00090E00E94380D009731F09C01285A3F4F70
:1014C000522F432F04C020E030E050E040E09B83E7
:1014D0008A839D838C833F832E835887498760E06E
:1014E000CE010E960E9407048A819B819D838C8386
:1014F000888599859F838E8360E0CE010E960E9439
:1015000007040115110511F0C80102C082E691E03F
:10151000B88AAF869A8B898B1C8B0B8BFAE0FD8B7C
:101520001F8ABE01665F7F4FCE010F960E94A50401
:10153000988B8F87CE010F960E949704672B19F026
:1015400006E810E011C080FDFBCF23C0E091E1016F
:10155000F091E2010190F081E02D81EE91E009959A
:101560000F5F1F4F892B21F0F80164916111EECFBD
:101570008F8598898630910518F086E691E007C03E
:10158000880F991FFC01E85BFE4F808191810E94CA
:1015900076088E8585FF14C00A851B856FE771E08C
:1015A000C8010E94DD0364E871E0C8010E94DD0308
:1015B000009731F0FC01248125FF02C07C0102C0AC
:1015C000E12CF12C69E871E0C7010E940D040E9432
:1015D00018048C016CE871E0C7010E940D040E94A0
:1015E0001804382E292E6FE871E0C7010E940D04FF
:1015F0000E9418046C0164E971E0C7010E940D04A7
:101600000E9418047C01C8010E948408101611066B
:1016100054F08A819B810E94CD0D0FB6F8949EBE36
:101620000FBE8DBE2AC0C6010E948408832D922D54
:101630000E948408C7010E948408CD2839F461E023
:10164000832D0E940609C12CD12C02C060E0F8CF86
:10165000CE14DF04F4F661E0802F0E94060960E0FA
:10166000802F0E94060960E570E080E090E00E9413
:101670005903FFEFCF1ADF0AEBCF64EF71E080E090
:1016800090E00E945903EFE7F0E08491F2010491A9
:10169000F30114911123A1F081110E943003E12F75
:1016A000F0E0EE0FFF1FE859FF4FA591B4918C9128
:1016B000082391E080E009F490E0692F782F02C0C0
:1016C00060E070E0F1E06F278DE00E9406090E9463
:1016D0005A08C5CEE1EEF1E01382128288EE93E063
:1016E000A0E0B0E084839583A683B7838AE391E08A
:1016F0009183808385EC90E09587848784EC90E0EB
:101700009787868780EC90E0918B808B81EC90E0CE
:10171000938B828B82EC90E0958B848B86EC90E0AF
:10172000978B868B118E128E138E148E08950E94C5
:101730000F0C08F481E008950E94A30B6894B11186
:101740000C94560C08950E943B0C88F09F5798F01B
:10175000B92F9927B751B0F0E1F0660F771F881FB6
:10176000991F1AF0BA95C9F714C0B13091F00E94D0
:10177000550CB1E008950C94550C672F782F8827ED
:10178000B85F39F0B93FCCF3869577956795B395F7
:10179000D9F73EF490958095709561957F4F8F4F66
:1017A0009F4F0895E89409C097FB3EF4909580956B
:1017B000709561957F4F8F4F9F4F9923A9F0F92F17
:1017C00096E9BB279395F695879577956795B79595
:1017D000F111F8CFFAF4BB0F11F460FF1BC06F5F7B
:1017E0007F4F8F4F9F4F16C0882311F096E911C08D
:1017F000772321F09EE8872F762F05C0662371F0AE
:1018000096E8862F70E060E02AF09A95660F771FC1
:10181000881FDAF7880F9695879597F90895990F9D
:101820000008550FAA0BE0E8FEEF16161706E807AA
:10183000F907C0F012161306E407F50798F0621BCB
:10184000730B840B950B39F40A2661F0232B242BA0
:10185000252B21F408950A2609F4A140A6958FEFBF
:10186000811D811D089557FD9058440F551F59F053
:101870005F3F71F04795880F97FB991F61F09F3F7D
:1018800079F087950895121613061406551FF2CFA6
:101890004695F1DF08C0161617061806991FF1CFF6
:1018A00086957105610508940895E894BB2766271D
:1018B0007727CB0197F908950E940F0C08F48FEF5A
:1018C00008950E94740C0C94E50C0E94D70C38F01B
:1018D0000E94DE0C20F0952311F00C94CE0C0C9499
:1018E000D40C11240C94560C0E94330C70F3959F69
:1018F000C1F3950F50E0551F629FF001729FBB2707
:10190000F00DB11D639FAA27F00DB11DAA1F649FA2
:101910006627B00DA11D661F829F2227B00DA11D55
:10192000621F739FB00DA11D621F839FA00D611DDB
:10193000221F749F3327A00D611D231F849F600DFC
:10194000211D822F762F6A2F11249F5750409AF025
:10195000F1F088234AF0EE0FFF1FBB1F661F771FB1
:10196000881F91505040A9F79E3F510580F00C947C
:10197000CE0C0C94560C5F3FE4F3983ED4F386955E
:1019800077956795B795F795E7959F5FC1F7FE2B1C
:10199000880F911D9695879597F9089597F99F67F8
:1019A00080E870E060E008959FEF80EC08950024E7
:1019B0000A941616170618060906089500240A94B4
:1019C00012161306140605060895092E0394000C3A
:1019D00011F4882352F0BB0F40F4BF2B11F460FFC9
:1019E00004C06F5F7F4F8F4F9F4F0895A1E21A2E63
:1019F000AA1BBB1BFD010DC0AA1FBB1FEE1FFF1FB3
:101A0000A217B307E407F50720F0A21BB30BE40B02
:101A1000F50B661F771F881F991F1A9469F7609549
:101A20007095809590959B01AC01BD01CF01089503
:101A30000E94290DA59F900DB49F900DA49F800D2D
:101A4000911D11240895EE0FFF1F0590F491E02DD4
:101A50000994A29FB001B39FC001A39F700D811D87
:101A60001124911DB29F700D811D1124911D0895A7
:101A7000CF93DF938230910510F482E090E0E09103
:101A80008002F091810220E030E0C0E0D0E03097A9
:101A900011F14081518148175907C0F04817590783
:101AA00061F482819381209719F09B838A832BC0F4
:101AB000909381028093800226C02115310519F090
:101AC0004217530718F49A01BE01DF01EF010280AB
:101AD000F381E02DDCCF2115310509F1281B390BED
:101AE0002430310590F412968D919C9113976115D5
:101AF000710521F0FB019383828304C090938102DE
:101B000080938002FD01329644C0FD01E20FF31F75
:101B100081939193225031092D933C933AC02091A7
:101B20007E0230917F02232B41F4209102013091FB
:101B3000030130937F0220937E02209100013091B7
:101B400001012115310541F42DB73EB74091040143
:101B500050910501241B350BE0917E02F0917F022C
:101B6000E217F307A0F42E1B3F0B2817390778F074
:101B7000AC014E5F5F4F2417350748F04E0F5F1FD3
:101B800050937F0240937E028193919302C0E0E0E4
:101B9000F0E0CF01DF91CF9108950F931F93CF9382
:101BA000DF93009709F48CC0FC01329713821282F4
:101BB00000918002109181020115110581F42081AC
:101BC0003181820F931F20917E0230917F0228176E
:101BD000390779F5F0937F02E0937E0271C0D80156
:101BE00040E050E0AE17BF0750F412962D913C91A3
:101BF0001397AD012115310509F1D901F3CF9D01ED
:101C0000DA013383228360817181860F971F8217E7
:101C1000930769F4EC0128813981260F371F2E5F65
:101C20003F4F318320838A819B8193838283452B1D
:101C300029F4F0938102E093800242C01396FC9352
:101C4000EE931297ED01499159919E01240F351F92
:101C5000E217F30771F480819181840F951F02963A
:101C600011969C938E938281938113969C938E936D
:101C70001297E0E0F0E0D80112968D919C911397B5
:101C8000009719F0F8018C01F6CF8D919C91980185
:101C90002E5F3F4F820F931F20917E0230917F0273
:101CA0002817390769F4309729F4109281021092AD
:101CB000800202C01382128210937F0200937E0280
:101CC000DF91CF911F910F91089581E090E0F894FA
:101CD0000C94730EFB01DC018D91019080190110B1
:0A1CE000D9F3990B0895F894FFCF93
:101CEA00000082028000CDCCCC3D0AD7233C17B736
:101CFA00D13877CC2B329595E6241FB14F0A0000D4
:101D0A0020410000C84200401C4620BCBE4CCA1BF1
:101D1A000E5AAEC59D7400000000F1075A078907E4
:101D2A003808BA079807AC079A019D01AD01BA01B4
:101D3A00C301D00122225C5C6208660C6E0A720D35
:101D4A007409000D0A003F3F3F00537461727469C1
:101D5A006E6720537465707065725465737400748D
:101D6A0079706500646174610073500064500064A6
:101D7A0056616C007374657073004F6B00496E6333
:101D8A006F6D706C657465496E70757400496E7616
:101D9A00616C6964496E707574004E6F4D656D6F44
:101DAA007279004E6F74537570706F727465640047
:081DBA00546F6F446565700071
:00000001FF
